{
  "contractName": "MultiSig",
  "abi": [
    {
      "constant": true,
      "inputs": [],
      "name": "maxOwners",
      "outputs": [
        {
          "name": "",
          "type": "uint256"
        }
      ],
      "payable": false,
      "stateMutability": "view",
      "type": "function"
    },
    {
      "constant": true,
      "inputs": [],
      "name": "requiredSignatures",
      "outputs": [
        {
          "name": "",
          "type": "uint256"
        }
      ],
      "payable": false,
      "stateMutability": "view",
      "type": "function"
    },
    {
      "constant": true,
      "inputs": [
        {
          "name": "",
          "type": "uint256"
        }
      ],
      "name": "ownersArr",
      "outputs": [
        {
          "name": "",
          "type": "address"
        }
      ],
      "payable": false,
      "stateMutability": "view",
      "type": "function"
    },
    {
      "constant": true,
      "inputs": [],
      "name": "nonce",
      "outputs": [
        {
          "name": "",
          "type": "uint256"
        }
      ],
      "payable": false,
      "stateMutability": "view",
      "type": "function"
    },
    {
      "inputs": [
        {
          "name": "requiredSignatures_",
          "type": "uint256"
        },
        {
          "name": "owners_",
          "type": "address[]"
        }
      ],
      "payable": false,
      "stateMutability": "nonpayable",
      "type": "constructor"
    },
    {
      "payable": true,
      "stateMutability": "payable",
      "type": "fallback"
    },
    {
      "constant": false,
      "inputs": [
        {
          "name": "sigV",
          "type": "uint8[]"
        },
        {
          "name": "sigR",
          "type": "bytes32[]"
        },
        {
          "name": "sigS",
          "type": "bytes32[]"
        },
        {
          "name": "destination",
          "type": "address"
        },
        {
          "name": "value",
          "type": "uint256"
        },
        {
          "name": "data",
          "type": "bytes"
        }
      ],
      "name": "execute",
      "outputs": [],
      "payable": false,
      "stateMutability": "nonpayable",
      "type": "function"
    }
  ],
  "bytecode": "0x608060405234801561001057600080fd5b50604051610bbe380380610bbe8339810180604052604081101561003357600080fd5b8101908080519060200190929190805164010000000081111561005557600080fd5b8281019050602081018481111561006b57600080fd5b815185602082028301116401000000008211171561008857600080fd5b5050929190505050600a8151111580156100a3575080518211155b80156100af5750600082115b1515610123576040517f08c379a000000000000000000000000000000000000000000000000000000000815260040180806020018281038252601f8152602001807f636865636b696e6720746861742074686579277265206e6f7420656d7074790081525060200191505060405180910390fd5b600080905060008090505b82518110156101cd57600160026000858481518110151561014b57fe5b9060200190602002015173ffffffffffffffffffffffffffffffffffffffff1673ffffffffffffffffffffffffffffffffffffffff16815260200190815260200160002060006101000a81548160ff02191690831515021790555082818151811015156101b457fe5b906020019060200201519150808060010191505061012e565b5081600390805190602001906101e49291906101f4565b50826001819055505050506102c1565b82805482825590600052602060002090810192821561026d579160200282015b8281111561026c5782518260006101000a81548173ffffffffffffffffffffffffffffffffffffffff021916908373ffffffffffffffffffffffffffffffffffffffff16021790555091602001919060010190610214565b5b50905061027a919061027e565b5090565b6102be91905b808211156102ba57600081816101000a81549073ffffffffffffffffffffffffffffffffffffffff021916905550600101610284565b5090565b90565b6108ee806102d06000396000f3fe608060405260043610610067576000357c010000000000000000000000000000000000000000000000000000000090048063045b76ca146100695780638d06804314610094578063aa5df9e2146100bf578063affed0e01461013a578063f12d394f14610165575b005b34801561007557600080fd5b5061007e610413565b6040518082815260200191505060405180910390f35b3480156100a057600080fd5b506100a9610418565b6040518082815260200191505060405180910390f35b3480156100cb57600080fd5b506100f8600480360360208110156100e257600080fd5b810190808035906020019092919050505061041e565b604051808273ffffffffffffffffffffffffffffffffffffffff1673ffffffffffffffffffffffffffffffffffffffff16815260200191505060405180910390f35b34801561014657600080fd5b5061014f61045c565b6040518082815260200191505060405180910390f35b34801561017157600080fd5b50610411600480360360c081101561018857600080fd5b81019080803590602001906401000000008111156101a557600080fd5b8201836020820111156101b757600080fd5b803590602001918460208302840111640100000000831117156101d957600080fd5b919080806020026020016040519081016040528093929190818152602001838360200280828437600081840152601f19601f8201169050808301925050505050505091929192908035906020019064010000000081111561023957600080fd5b82018360208201111561024b57600080fd5b8035906020019184602083028401116401000000008311171561026d57600080fd5b919080806020026020016040519081016040528093929190818152602001838360200280828437600081840152601f19601f820116905080830192505050505050509192919290803590602001906401000000008111156102cd57600080fd5b8201836020820111156102df57600080fd5b8035906020019184602083028401116401000000008311171561030157600080fd5b919080806020026020016040519081016040528093929190818152602001838360200280828437600081840152601f19601f820116905080830192505050505050509192919290803573ffffffffffffffffffffffffffffffffffffffff169060200190929190803590602001909291908035906020019064010000000081111561038b57600080fd5b82018360208201111561039d57600080fd5b803590602001918460018302840111640100000000831117156103bf57600080fd5b91908080601f016020809104026020016040519081016040528093929190818152602001838380828437600081840152601f19601f820116905080830192505050505050509192919290505050610462565b005b600a81565b60015481565b60038181548110151561042d57fe5b906000526020600020016000915054906101000a900473ffffffffffffffffffffffffffffffffffffffff1681565b60005481565b600154855114151561047357600080fd5b8351855114158061048657508551855114155b1561049057600080fd5b600060197f01000000000000000000000000000000000000000000000000000000000000000260007f0100000000000000000000000000000000000000000000000000000000000000023086868660005460405160200180887effffffffffffffffffffffffffffffffffffffffffffffffffffffffffffff19167effffffffffffffffffffffffffffffffffffffffffffffffffffffffffffff19168152600101877effffffffffffffffffffffffffffffffffffffffffffffffffffffffffffff19167effffffffffffffffffffffffffffffffffffffffffffffffffffffffffffff191681526001018673ffffffffffffffffffffffffffffffffffffffff1673ffffffffffffffffffffffffffffffffffffffff166c010000000000000000000000000281526014018573ffffffffffffffffffffffffffffffffffffffff1673ffffffffffffffffffffffffffffffffffffffff166c0100000000000000000000000002815260140184815260200183805190602001908083835b6020831015156106355780518252602082019150602081019050602083039250610610565b6001836020036101000a038019825116818451168082178552505050505050905001828152602001975050505050505050604051602081830303815290604052805190602001209050600080905060008090505b6001548110156108b75760006001848b848151811015156106a657fe5b906020019060200201518b858151811015156106be57fe5b906020019060200201518b868151811015156106d657fe5b9060200190602002015160405160008152602001604052604051808581526020018460ff1660ff1681526020018381526020018281526020019450505050506020604051602081039080840390855afa158015610737573d6000803e3d6000fd5b5050506020604051035190508273ffffffffffffffffffffffffffffffffffffffff168173ffffffffffffffffffffffffffffffffffffffff161115806107c85750600260008273ffffffffffffffffffffffffffffffffffffffff1673ffffffffffffffffffffffffffffffffffffffff16815260200190815260200160002060009054906101000a900460ff16155b156107d257600080fd5b80925060016000540160008190555060008773ffffffffffffffffffffffffffffffffffffffff1687876040518082805190602001908083835b602083101515610831578051825260208201915060208101905060208303925061080c565b6001836020036101000a03801982511681845116808217855250505050505090500191505060006040518083038185875af1925050503d8060008114610893576040519150601f19603f3d011682016040523d82523d6000602084013e610898565b606091505b505090508015156108a857600080fd5b50508080600101915050610689565b50505050505050505056fea165627a7a72305820a079ebc087e3deb83dee28bdd0fa2caadc2a5c46f18de6a8edaab83aa291e5e80029",
  "source": "pragma solidity >=0.4.16 <0.7.0;\n\n    contract MultiSig{\n        \n        uint256 public nonce;\n        uint public requiredSignatures;\n        mapping (address => bool) isOwner;\n        address[] public ownersArr;\n        \n        uint constant public maxOwners = 10;\n        \n        \n        constructor(uint requiredSignatures_, address[] memory owners_) public {\n            require(owners_.length <= 10 && requiredSignatures_ <= owners_.length && requiredSignatures_ > 0, \"checking that they're not empty\");\n        \n            address lastAdd = address(0); // owner cannot have address (0)\n            //checks to make sure owners address is greater than address(0)\n            for (uint i = 0; i < owners_.length; i++) {\n                  isOwner[owners_[i]] = true;\n                  lastAdd = owners_[i];\n                }\n                ownersArr = owners_;\n                requiredSignatures = requiredSignatures_;\n            }\n        \n       function execute(uint8[] memory sigV, bytes32[] memory sigR, bytes32[] memory sigS, address destination, uint value, bytes memory data) public  {\n            if (sigR.length != requiredSignatures) {revert();}\n            if (sigR.length != sigS.length || sigR.length != sigV.length) {revert();}\n            \n            bytes32 txHash = keccak256(abi.encodePacked(byte(0x19), byte(0), this, destination, value, data, nonce));\n\n            \n            address lastAdd = address(0); \n            for (uint i = 0; i < requiredSignatures; i++) {\n                address recovered = ecrecover(txHash, sigV[i], sigR[i], sigS[i]);\n                if (recovered <= lastAdd || !isOwner[recovered]) revert();\n                lastAdd = recovered;\n                nonce = nonce + 1;\n                (bool success,) = destination.call.value(value)(data);\n                require(success);\n    }\n\n    }\n    function () payable external{}\n    }",
  "sourcePath": "/Users/mathaiputhiakunnel/smartcontracts/multiSig/contracts/MultiSig.sol",
  "compiler": {
    "name": "solc",
    "version": "0.5.1+commit.c8a2cb62.Emscripten.clang"
  },
  "schemaVersion": "3.2.3",
  "updatedAt": "2020-08-24T21:00:44.625Z",
  "networkType": "ethereum",
  "devdoc": {
    "methods": {}
  },
  "userdoc": {
    "methods": {}
  }
}